:020000040800F2
:1000000000200020951C0008790500087B050008E9
:1000100000000000000000000000000000000000E0
:100020000000000000000000000000007D05000846
:1000300000000000000000007F05000881050008A6
:10004000E51C0008E51C0008E51C0008E51C00088C
:10005000E51C0008E51C0008E51C0008E51C00087C
:10006000E51C0008E51C0008E51C0008E51C00086C
:10007000E51C0008E51C0008E51C0008E51C00085C
:10008000E51C0008E51C000800000000E51C000855
:10009000E51C0008E51C0008E51C0008E51C00083C
:1000A000E51C0008E51C0008E51C0008890500089F
:1000B000E51C000800000000E51C0008000000002E
:1000C00010B5064C2378002B07D1054B002B02D02E
:1000D000044800E000BF0123237010BD7000002021
:1000E00000000000FC280008044B10B5002B03D0D2
:1000F0000349044800E000BF10BDC04600000000F6
:1001000074000020FC28000802780B78002A03D035
:10011000013001319A42F7D0D01A70470023C25CF7
:100120000133002AFBD1581E70470000002243080B
:100130008B4274D303098B425FD3030A8B4244D3AF
:10014000030B8B4228D3030C8B420DD3FF220902F1
:1001500012BA030C8B4202D31212090265D0030BB0
:100160008B4219D300E0090AC30B8B4201D3CB03A6
:10017000C01A5241830B8B4201D38B03C01A5241E8
:10018000430B8B4201D34B03C01A5241030B8B42EA
:1001900001D30B03C01A5241C30A8B4201D3CB02D5
:1001A000C01A5241830A8B4201D38B02C01A5241BA
:1001B000430A8B4201D34B02C01A5241030A8B42BD
:1001C00001D30B02C01A5241CDD2C3098B4201D3D5
:1001D000CB01C01A524183098B4201D38B01C01A53
:1001E000524143098B4201D34B01C01A52410309CA
:1001F0008B4201D30B01C01A5241C3088B4201D379
:10020000CB00C01A524183088B4201D38B00C01A25
:10021000524143088B4201D34B00C01A5241411A4C
:1002200000D20146524110467047FFE701B5002059
:1002300000F006F802BDC0460029F7D076E7704707
:100240007047C046F0B589B01422002103A801F020
:100250006FFD184B596980208002014359615A692A
:1002600002400192019A5A69802109030A435A61A6
:100270005B690B400293029BC027BF000E4D00221A
:100280003900280000F0CCFE0126039690235B0382
:10029000049300240594902003A9C00500F0FAFD02
:1002A000039704960594069403A9280000F0F2FD34
:1002B00009B0F0BD001002400008004810B514005D
:1002C000012392B25B42024801F05EFB200010BDA8
:1002D000F800002010B58021124C002249002000B7
:1002E00000F09EFE802100228900200000F098FE90
:1002F0000D490E48FFF708FF00280FD00C490B48A6
:10030000FFF702FF00280BD00A490848FFF7FCFE60
:10031000002801D0002002E0033000E0012010BDE1
:100320000220FCE700080048202900088C0000207B
:10033000282900083029000810B51B4B1B78632BB7
:100340000BD9194B00221A70002304E0174A002130
:10035000D1540133DBB2632BF8D9154B1B780D2B2D
:1003600011D00A2B0FD010490A78501C08700F4981
:100370008B5401220E490F4801F052FC00280DD089
:100380000D4B187010BD084B00221A700B4B013238
:100390001A70FFF79FFF0A4B1870EAE780214900A7
:1003A000084800F043FEEDE7F20000208C0000203A
:1003B000F0000020F8000020F4000020F3000020EE
:1003C0007C0100200008004872B6FEE710B50B481B
:1003D0000B4B036096239B01436000238360C36043
:1003E00003610C2242618361C3610362436201F0D5
:1003F00085FB002800D110BDFFF7E6FFF8000020C4
:100400000038014000B597B0302200210AA801F061
:100410008FFC1022002106A801F08AFC1422002182
:1004200001A801F085FC02230A9301220D920F32EC
:100430000E921293A0239B0314930AA800F000F9D4
:10044000002817D107230693053B07930023089341
:100450000993012106A800F079FB00280CD10123A3
:1004600001930023039301A800F020FC002805D18C
:1004700017B000BDFFF7A8FFFFF7A6FFFFF7A4FF27
:1004800030B585B000F0D2FCFFF7BCFFFFF7DAFE15
:10049000FFF79CFF01223049304801F0C1FB01AA5F
:1004A0002F4B19680191998891809B799371032250
:1004B00000210B20684401F03BFC23E080218900EF
:1004C000284800F0B3FDC82430E0802149002548C9
:1004D00000F0ACFDC82429E08021224C89002000D6
:1004E00000F0A4FD80214900200000F09FFD1424AD
:1004F0001CE00A2001F024FC1B4B00221A70200093
:1005000000F0B6FC194B1B78012BD7D0022BDCD0A6
:10051000032BE1D08021134C4900200000F086FD20
:1005200080218900200000F081FDE8240E4B1B781B
:10053000012BE4D10E4D2800FFF7F0FD82B26423B9
:100540002900064801F020FA084B1B78002BD0D078
:10055000084801F07BFCCFE7F0000020F800002005
:100560001429000800080048F30000207C01002046
:100570008C00002038290008FEE7FEE7704770472E
:1005800010B500F063FC10BD10B5024800F04AFE43
:1005900010BDC046F800002082B00A4B99690122C4
:1005A0001143996199690A400092009ADA698021A1
:1005B00049050A43DA61DB690B400193019B02B0F4
:1005C0007047C0460010024010B588B004001422E5
:1005D000002103A801F0ACFB2268174B9A4201D01E
:1005E00008B010BD154B99698020C0010143996185
:1005F0009A6902400192019A5A69802189020A434C
:100600005A615B690B400293029BC023DB0003939A
:100610000223049301330693023B0793902003A91E
:10062000C00500F037FC002200211B2000F04EFD29
:100630001B2000F07BFDD3E7003801400010024092
:1006400070B582B0041E00D12EE20368DB0726D508
:10065000AE4B5A680C231340042B18D0AB4B5A688E
:100660000C231340082B0ED06368012B3CD0002BC9
:1006700051D1A64B1A68A6490A401A601A68A549C2
:100680000A401A6036E0A14B5B68DB03ECD59F4B58
:100690001B689B0303D56368002B00D107E2236826
:1006A0009B0772D5994B5B680C221A425DD0974B21
:1006B0005A680C231340082B53D0E368002B00D159
:1006C00085E0924A136801210B43136000F0CAFBD6
:1006D00005008E4B1B689B0770D400F0C3FB401BCA
:1006E0000228F6D90320E0E1884A116880235B02E2
:1006F0000B4313606368002B25D000F0B3FB0500AB
:10070000824B1B689B03CAD400F0ACFB401B6428DF
:10071000F6D90320C9E1052B09D07C4B1A687C4926
:100720000A401A601A687B490A401A60E2E7774B70
:1007300019688022D2020A431A6019688022520284
:100740000A431A60D6E700F08DFB05006F4B1B686B
:100750009B03A4D500F086FB401B6428F6D9032038
:10076000A3E16A4B5B68DB03A7D4684B1B689B075C
:1007700003D5E368012B00D09BE164490B68F822A4
:1007800093432269D20013430B6023681B0744D5AF
:10079000E369002B2ED05D4A536A01210B4353625B
:1007A00000F060FB0500594B5B6A9B0735D400F0F5
:1007B00059FB401B0228F6D9032076E153490B6808
:1007C000F82293432269D20013430B60DDE74F4ABE
:1007D000136801218B43136000F044FB05004B4B71
:1007E0001B689B07D1D500F03DFB401B0228F6D9C2
:1007F00003205AE1454A536A01218B43536200F0BA
:1008000031FB0500414B5B6A9B0706D500F02AFBD4
:10081000401B0228F6D9032047E123685B0700D478
:1008200080E03A4BDB69DB001DD4384AD169802077
:1008300040050143D161D36903400193019B012528
:10084000354B1B68DB0510D5A368012B21D0002B8D
:1008500036D12E4B1A6A01218A431A621A6A033171
:100860008A431A621AE00025EAE72B4A11688023BE
:100870005B000B43136000F0F5FA0600264B1B6883
:10088000DB05E1D400F0EEFA801B6428F6D90320E2
:100890000BE11E4A136A01210B431362A368002B6C
:1008A00024D000F0DFFA0600184B1B6A9B0737D4F0
:1008B00000F0D8FA801B194B9842F5D90320F4E0D8
:1008C000052B09D0114B1A6A01218A431A621A6A50
:1008D00003318A431A62E1E70C4B1A6A04210A4386
:1008E0001A621A6A03390A431A62D7E700F0BAFAA1
:1008F0000600064B1B6A9B0712D500F0B3FA801B5B
:10090000064B9842F5D90320CFE0C04600100240C4
:10091000FFFFFEFFFFFFFBFF007000408813000099
:10092000012D33D02368DB0610D56369012B33D04A
:10093000053351D1654A536B04218B435363536B89
:10094000F4318B43A169C9000B435363236A002B25
:1009500000D1B0E05D4A51680C220A40082A00D15B
:100960008AE0022B4FD0594A136859490B40136053
:1009700000F078FA0400554B1B689B017AD500F013
:1009800071FA001B0228F6D903208EE04F4AD36982
:1009900050490B40D361C5E74C4B5A6B04210A43C5
:1009A0005A635A6B03390A435A6300F05BFA050035
:1009B000464B5B6B9B0706D400F054FA401B0228A1
:1009C000F6D9032071E041494B6BF8229343A269A9
:1009D000D20013434B63B9E73C4B5A6B04210A43E3
:1009E0005A635A6B03398A435A6300F03BFA050095
:1009F000364B5B6B9B07A9D500F034FA401B0228ED
:100A0000F6D9032051E0314A136831490B40136095
:100A100000F028FA05002D4B1B689B0106D500F05D
:100A200021FA401B0228F6D903203EE0274BDA6A60
:100A30000F218A43E16A0A43DA625A6826490A406A
:100A4000A16A606A01430A435A601968802252040D
:100A50000A431A6000F006FA04001C4B1B689B0155
:100A600006D400F0FFF9001B0228F6D903201CE091
:100A700000201AE0002018E0012B1ED0134B5A680A
:100A8000D96A80235B021340606A834217D10F2327
:100A90000B40E16A8B4214D1F0239B031A40A36AF6
:100AA0009A4210D1002000E0012002B070BD012068
:100AB000FBE70120F9E70020F7E70120F5E7012037
:100AC000F3E70120F1E70120EFE7C0460010024004
:100AD000FFFFFFFEFFFFFFEFFFFFC2FF10B588B073
:100AE00004AA164B13CB13C21B6813606A46144B3F
:100AF00013CB13C21B681360124B5A680C231340AC
:100B0000082B02D0104808B010BD910C07331940D3
:100B100004A8445C0B49C96A0B406946C95CD3030D
:100B200004D50948FFF702FB6043ECE763011B1B98
:100B30009801C01AC00000190002E4E7402900082B
:100B4000542900080010024000127A0070B5040019
:100B50000D00002800D17EE0434B1A6801231340AA
:100B60008B420AD240490B68012293432B430B600E
:100B70000B681A40AA4200D06FE023689A070ED58E
:100B80005B0705D5394A5168E023DB000B4353600E
:100B9000364A5368F0218B43A1680B4353602368A6
:100BA000DB072DD56368012B1ED0022B22D02F4AE4
:100BB0001268920753D52D494A6803208243134394
:100BC0004B6000F04FF90600284B5B680C221A407E
:100BD00063689B009A4213D000F044F9801B244BB9
:100BE0009842F1D9032035E0204A12689203E2D4FA
:100BF00001202FE01D4A12689201DCD4012029E077
:100C0000194B1A6801231340AB4209D916490B68E6
:100C1000012293432B430B600B681A40AA4220D158
:100C200023685B0706D5114A536812490B40E168F7
:100C30000B435360FFF752FF0C4B5A6812090F2306
:100C400013400D4AD35CD8400C4B1860002000F0D4
:100C5000C5F8002070BD0120FCE70120FAE7012063
:100C6000F8E70120F6E7C0460020024000100240ED
:100C700088130000FFF8FFFF682900080800002023
:100C8000014B18687047C0460800002010B5FFF7F8
:100C9000F7FF044B5A68120A07231340024AD35C39
:100CA000D84010BD001002407829000870B582B00D
:100CB00004000368DB0337D5424BDB69DB0053D408
:100CC000404AD169802040050143D161D369034086
:100CD0000193019B01253C4B1B68DB0546D5394B35
:100CE0001A6AC0239B00110019401A4213D062688F
:100CF00013408B420FD0334B186A344A02401E6AAD
:100D00008021490231431962196A314E314019621A
:100D10001A62C3073ED42B4A136A2C490B40616800
:100D20000B431362012D44D02368DB0706D5254A07
:100D3000136B03218B43A1680B43136323689B064A
:100D400006D5204A136B10218B43E1680B431363D4
:100D500023685B0532D51B4A136B40218B43216905
:100D60000B43136300202AE00025B4E7164A1168FC
:100D700080235B000B43136000F074F80600124BF5
:100D80001B68DB05ABD400F06DF8801B6428F6D936
:100D9000032014E000F066F806000A4B1B6A9B076C
:100DA000B9D400F05FF8801B0A4B9842F5D90320B4
:100DB00005E0D36908490B40D361B5E7002002B0D4
:100DC00070BDC0460010024000700040FFFCFFFFF5
:100DD000FFFFFEFF88130000FFFFFFEF10B50400C8
:100DE0000F4B1978FA208000FFF7A0F901000D4B96
:100DF0001868FFF79BF900F0A5F900280DD1032C26
:100E000001D901200AE0013000222100404200F017
:100E10005DF9054B1C60002000E0012010BDC046BC
:100E200000000020080000200400002010B5064A41
:100E3000136810210B4313600020FFF7CFFFFFF76B
:100E4000ABFB002010BDC04600200240034A1168E1
:100E5000034B1B785B1813607047C046800100206D
:100E600000000020014B18687047C0468001002038
:100E700070B50400FFF7F6FF0500631C02D0044BB9
:100E80001B78E418FFF7EEFF401BA042FAD370BDB9
:100E900000000020F0B583B0002357E084685F00B5
:100EA0000326BE40B4432600CC68BC403443846073
:100EB000446894434A681609012232409A4022430A
:100EC000426053E0DC080834A400265805321A407A
:100ED00092000F279740BE430F6997403A00324374
:100EE000225057E0032600E00026A64034003C4391
:100EF00002329200444E9451444A1468EA43260058
:100F0000AE434F68FF0301D52C4326003F4C2660BB
:100F10006468260016404F68BF0301D52C432600A5
:100F20003A4C6660A468260016404F68FF0201D55F
:100F30002C432600354CA660E46822404E68B60279
:100F400001D52A002243314CE26001330C682200B3
:100F5000DA4057D001229A40250015401442F4D0BF
:100F600003244E683440013C012C97D903224C687D
:100F70002240032A09D0C2685E000324B440A24381
:100F800014008A68B2402243C26003224C682240A7
:100F9000022A97D004685E0003221700B740BC43C2
:100FA0004F683A40B24022430260C02292024C682D
:100FB0001442CAD0164CA66901221643A661A46940
:100FC00022400192019A9A08941CA4000E4EA7593F
:100FD00003241C40A4000F26A640B7439026F60524
:100FE000B04281D00B4EB04208D00B4EB04207D079
:100FF0000A4EB04200D175E7052676E7012674E770
:10100000022672E703B0F0BD000001400004014079
:10101000001002400004004800080048000C00488E
:10102000002A01D0816170478162FCE742691300A8
:101030000B401B04914319438161704710B5212374
:10104000C35C022B06D0042383631C330022C254EA
:10105000012010BD026813680E218B4313600168E4
:101060000A6801239A430A60C26B1900046CA1400C
:101070005160212283541F330022C2540020E8E72C
:1010800010B52123C35C022B03D00423836301200A
:1010900010BD026813680E218B43136001680A6853
:1010A00001239A430A60C26B1900046CA14051608D
:1010B000212283541F330022C254436B002B02D0E1
:1010C00098470020E4E70020E2E7000070B5002820
:1010D00011DB8308134EC0339B009D59032420402D
:1010E000C000FF2214008440A54389010A408240C9
:1010F0002A439A5170BD0F230340083B9B080633D7
:101100009B00094A944663445C6803221040C00077
:10111000FC3215008540AC4389010A4082402243DD
:101120005A60E7E700E100E000ED00E0002805DBA1
:101130001F2318401E3B8340014A13607047C0467E
:1011400000E100E0013880235B0498420FD2094A95
:1011500050600948036A1B021B0AC02109060B43A1
:10116000036200239360073313600020704701205F
:10117000FCE7C04610E000E000ED00E07047000032
:1011800010B5EFF3108C012282F3108801680B6810
:10119000124C23400B608CF31088EFF3108C82F319
:1011A000108801688B6893438B608CF31088036E02
:1011B000012B05D02023C36700230366436610BDBF
:1011C000EFF3108183F31088026813683234FF3420
:1011D000A343136081F31088ECE7C046DFFEFFFFF6
:1011E000704710B5EFF31081012383F31088026874
:1011F00013684024A343136081F31088202383677E
:1012000000238366FFF7ECFF10BD704710B5406AFE
:1012100000235A228352083A8352FFF7F6FF10BD8B
:101220007047000070B504000268D36910689568C3
:10123000AA491E000E400B4203D1990601D5810632
:101240001DD4002E07D001210E002E4029421CD1B2
:10125000A349084219D1216E012900D198E0D90291
:1012600002D5690200D527E11A0602D5020600D58B
:1012700029E15B0602D5430600D52BE170BD636E04
:10128000002BFBD020009847F8E7D90707D5C10508
:1012900005D501251562802162582A4362509A07BC
:1012A00009D5002E07D02268022111627E316258D2
:1012B00004252A4362505A0709D5002E07D0226818
:1012C000042111627C31625802252A4362501A07B8
:1012D0000AD5820601D4002E06D0226808251562A0
:1012E000802162582A4362501A050AD5420108D566
:1012F00022688021090111628021625820252A4339
:1013000062508022A258002AB8D09B0606D58306D8
:1013100004D5636E002B01D0200098478023E2584B
:1013200023689B685B0602D42823134229D020003F
:10133000FFF726FF23689B685B061ED5EFF310813D
:10134000012383F3108822689368402083439360CD
:1013500081F31088236F002B0BD0624A5A63206FF1
:10136000FFF78EFE002800D188E7206F436B984777
:1013700084E72000FFF749FF80E72000FFF745FFE3
:101380007CE72000FFF741FF80230022E25075E751
:10139000D90600D463E7C10600D460E710231362C6
:1013A00023689B685B064FD5226F13685B689BB20E
:1013B000002B00D162E75821615A994200D85DE7BD
:1013C0005A2163529369202B09D15823E15A0233E1
:1013D000E35AC91A89B22000FFF722FF4EE7EFF364
:1013E0001080012383F3108821680A683E4D2A404B
:1013F0000A6080F31088EFF3108083F3108821686F
:101400008A689A438A6080F31088EFF3108083F330
:10141000108821688A684235FF35AA438A6080F3C4
:1014200010882022E26700222266EFF3108183F306
:1014300010882268136810208343136081F310889A
:10144000206FFFF7FBFDC0E75823E15A0233E25A51
:10145000891A89B2E35A9BB2002B00D10EE700290A
:1014600000D10BE7EFF31085012383F31088206888
:1014700002681E4E3240026085F31088EFF310853B
:1014800083F31088206882689A43826085F310880D
:101490002022E267002222666266EFF3108083F367
:1014A0001088226813681025AB43136080F31088FE
:1014B0002000FFF7B5FEE1E680235B031362200006
:1014C00000F0E7FBDAE6A36E002B00D1D6E62000A1
:1014D0009847D3E62000FFF784FECFE60F08000010
:1014E000200100040D120008FFFEFFFFDFFEFFFFDA
:1014F00010B55C23C35AC26F222A05D002689369D3
:1015000008210B43936110BD0268928CDBB213403B
:10151000426D1370436D013343655A22835A013B78
:101520009BB28352835A9BB2002BECD1EFF3108C09
:10153000593A82F3108801680B68184C23400B60FD
:101540008CF31088EFF3108C82F3108801688B689D
:1015500093438B608CF310882023C367002343667A
:10156000036E012B17D100230366EFF310840133C0
:1015700083F3108801680B680F3293430B6084F388
:1015800010880368D9690A4200D01A625823C15AE8
:10159000FFF746FEB7E7FEF7CFFEB4E7DFFEFFFF3B
:1015A00010B55C23C25AC36F222B05D00268936921
:1015B00008210B43936110BD03689B8C1340426D5F
:1015C0001380436D023343655A22835A013B9BB219
:1015D0008352835A9BB2002BEDD1EFF3108C593A12
:1015E00082F3108801680B68184C23400B608CF361
:1015F0001088EFF3108C82F3108801688B68934396
:101600008B608CF310882023C36700234366036E2E
:10161000012B17D100230366EFF31084013383F30A
:10162000108801680B680F3293430B6084F31088B5
:101630000368D9690A4200D01A625823C15AFFF7D9
:10164000EFFDB8E7FEF778FEB5E7C046DFFEFFFF27
:1016500010B5040083680269134342691343C269E9
:10166000134301680A685148024013430B60226823
:1016700053684F490B40E1680B435360226AA369EA
:101680001A4321688B684B48034013438B602368DF
:10169000494A934223D0494A934231D01023E0690A
:1016A00080221202904235D0042B00D176E064D81B
:1016B000002B00D16BE0022B5DD1414863685B08D1
:1016C00018186168FEF732FD0004000C0200103AA1
:1016D0003C4B9A4267D82368D860002053E03A4BCD
:1016E0001A6B03231340022B0CD005D8002B0BD010
:1016F000012B0BD10333D2E7032B09D1013BCEE7FA
:101700000023CCE70823CAE70023C8E71023C6E775
:101710001023C4E7042B2BD020D8002B22D0022B7F
:101720001AD12748400063685B08C0186168FEF75B
:10173000FDFC83B20004000C01001039214A9142E3
:101740002FD80F2293431A00400807231840104354
:101750002368D860002016E0012014E0082BE1D0B7
:10176000012010E0FFF792FA0028DBD100200AE008
:10177000FFF7B4F9F8E7012005E0082B02D180203B
:1017800000029BE7012000236366A36610BDFFF7FC
:101790007DFA002800D091E70020F4E7FFF79EF9DA
:1017A000F7E70120EFE70120EDE7C046F369FFFF0F
:1017B000FFCFFFFFFFF4FFFF00380140004400406F
:1017C00000127A00EFFF000000100240436ADB07BE
:1017D00006D5026853682C490B40816A0B4353605D
:1017E000436A9B0706D50268536828490B40C16AC3
:1017F0000B435360436A5B0706D50268536824496C
:101800000B40016B0B435360436A1B0706D502680C
:10181000536820490B40416B0B435360436ADB061E
:1018200006D5026893681C490B40816B0B4393609B
:10183000436A9B0606D50268936818490B40C16B42
:101840000B439360436A5B060BD5026853681449E7
:101850000B40016C0B43536080235B03026C9A4284
:101860000AD0436A1B0606D5026853680D490B402F
:10187000816C0B4353607047026853680A490B4000
:10188000416C0B435360ECE7FFFFFDFFFFFFFEFFE2
:10189000FFFFFBFFFF7FFFFFFFEFFFFFFFDFFFFF0C
:1018A000FFFFEFFFFFFFF7FFFFFF9FFFF8B5CE46FB
:1018B000474680B506000D0017009946089B9846DC
:1018C0003368DC692C40641B63425C41BC4253D1E9
:1018D00043460133F4D0FFF7C5FA4B46C01A4045E2
:1018E0002CD84346002B29D033681A685207E7D515
:1018F000DA691205E4D5802212011A62EFF3108032
:10190000012282F3108831680B681E4C23400B6063
:1019100080F31088EFF3108082F3108831688B68B1
:1019200093438B6080F310882023B367F3677F3283
:10193000B35054330022F25403201EE0EFF3108022
:10194000012282F3108831680B680E4C23400B6033
:1019500080F31088EFF3108082F3108831688B6871
:1019600093438B6080F310882023B367F36754336D
:101970000022F254032000E00020C0BCB946B0466B
:10198000F8BDC0465FFEFFFFF0B5C64600B582B0A9
:1019900004000D0090461E00836F202B66D10029A5
:1019A00069D0002A69D080235B0182689A421ED0E8
:1019B0007423E35C012B62D074230122E2540C33C4
:1019C0000022E2505F3BA367FFF74CFA0700502369
:1019D0004246E2520233E25280235B01A2689A42FD
:1019E0000CD00023984674230022E2541DE00369C2
:1019F000002BDDD1CB07DBD5012038E02369002B9C
:101A000002D000239846EEE7A8460025EBE74346C0
:101A10001B88DB05DB0D2268138502239C46E0440E
:101A20005223E25A013A92B2E2525223E35A9BB253
:101A3000002B0FD000963B00002280212000FFF7F2
:101A400035FF00281DD1002DE1D02B7822681385A9
:101A50000135E5E700963B00002240212000FFF71A
:101A600025FF00280FD12023A36700E0022002B049
:101A700080BCB846F0BD0120F9E70120F7E702205D
:101A8000F5E70320F3E70320F1E7000030B583B06A
:101A9000040080230022C250FFF7E4F90500226809
:101AA000126813070DD423681B685B0716D4202324
:101AB000A367E367002323667422A354002003B0C6
:101AC00030BD80210C4B00930300002289032000CD
:101AD000FFF7ECFE0028E6D00320F0E78021064B5C
:101AE00000932B000022C9032000FFF7DFFE00282F
:101AF000DDD00320E3E7C046FFFFFF0110B5041E61
:101B00002ED0836F002B21D02423A3672268136873
:101B100001218B4313602000FFF79AFD012814D0A8
:101B2000636A002B18D1226853680E490B4053603A
:101B3000226893682A218B439360226813682939AD
:101B40000B4313602000FFF7A1FF10BD7433002288
:101B5000C254FEF739FDD7E72000FFF737FEE2E772
:101B60000120F2E7FFB7FFFF41655823C25202335D
:101B7000C25200234366836880225201934208D0F8
:101B8000002B15D10369002B0ED15C33FF22C2520A
:101B900011E00369002B03D15C331E4AC2520AE0F4
:101BA0005C23FF22C25206E05C237F22C25202E085
:101BB0005C230022C25280230022C2505E3BC367D6
:101BC000EFF3108C012181F31088026893680B43B6
:101BD00093608CF3108880235B0182689A4213D053
:101BE0000D4B436674230022C254EFF31081733B04
:101BF00083F31088026810682033FF3303431360B7
:101C000081F31088002070470369002BE8D1034B53
:101C10004366E7E7FF010000F1140008A115000882
:101C200070B5C36F202B2CD100292CD0002A2CD0CA
:101C300080235B0184689C421CD07423C35C012B0D
:101C400025D074230124C4540023036603685B6811
:101C50001B020CD5EFF3108C012383F3108804686A
:101C600025688023DB042B4323608CF31088FFF767
:101C70007BFF07E00369002BDFD1CB07DDD5012017
:101C800000E0022070BD0120FCE70120FAE70220FD
:101C9000F8E770470D4885460D480E490E4A002367
:101CA00002E0D458C4500433C4188C42F9D30B4A10
:101CB0000B4C002301E013600432A242FBD3FFF778
:101CC0005DFA00F011F8FEF7DBFBFEE700200020D4
:101CD0000000002070000020EC29000870000020A7
:101CE00098010020FEE7000070B500260C4D0D4C59
:101CF000641BA410A64209D1002600F0FFFD0A4D86
:101D00000A4C641BA410A64205D170BDB300EB5869
:101D100098470136EEE7B300EB5898470136F2E7F3
:101D2000E4290008E4290008E4290008E82900085B
:101D300003008218934200D1704719700133F9E70C
:101D4000084B70B51C680500002C05D0A369002B5A
:101D500002D1200000F080FA29002000A26800F0E3
:101D60006DFC70BD0C00002070B505000E00002851
:101D700004D08369002B01D100F06EFAAB69AC6826
:101D8000002B02D1280000F067FA2D4B9C4222D193
:101D90006C68636EDB0705D4A3899B0502D4A06D34
:101DA00000F0FBFAA3891B0702D52369002B29D178
:101DB0002100280000F0AAF8002823D001256D4258
:101DC000636EDB0705D4A3899B0502D4A06D00F0E8
:101DD000E5FA280070BD1B4B9C4201D1AC68D8E7E6
:101DE000194B9C42D5D1EC68D3E70136A360002B98
:101DF00004DAA2699A4216DC0A2914D023685A1C14
:101E000022601970A3683178013B0029EDD1A360ED
:101E1000002B0FDA280022000A3100F021F80A25F1
:101E2000431CCDD1CAE72200280000F019F8431C5A
:101E3000E8D1C3E70A2523685A1C22601D70BFE75A
:101E4000A4290008C42900088429000810B5034B00
:101E500001001868FFF788FF10BDC0460C00002085
:101E6000F8B505000E001400002804D08369002B8B
:101E700001D100F0F1F9224B9C422ED16C68A3698C
:101E8000A360A3891B0732D52369002B2FD02368B9
:101E90002269F7B2981A6369F6B2834205DC210021
:101EA000280000F037F9002827D1A3680130013B52
:101EB000A36023685A1C22601F706369834204D0A8
:101EC000A389DB0707D50A2E05D12100280000F0E1
:101ED00021F9002811D13000F8BD0A4B9C4201D1F4
:101EE000AC68CCE7084B9C42C9D1EC68C7E721003D
:101EF000280000F00BF80028C9D001267642EAE756
:101F0000A4290008C429000884290008374B70B5AB
:101F10001D6806000C00002D05D0AB69002B02D116
:101F2000280000F099F9324B9C420FD16C680C23C9
:101F3000E25E93B211072DD4D90611D409230120F2
:101F4000336037331343A381404270BD294B9C4219
:101F500001D1AC68EBE7284B9C42E8D1EC68E6E79E
:101F60005B0713D5616B002908D0230044339942E5
:101F700002D0300000F080FA002363632422A3899A
:101F80009343A38100236360236923600823A2890C
:101F90001343A3812369002B0BD1A0218022A389A5
:101FA000890092000B40934203D02100300000F0E2
:101FB0001FFA0C22A35E01201A0099B202400342CC
:101FC0000FD00022A26062695242A2610020226901
:101FD0008242BAD10A06B8D540221343A381013800
:101FE000B3E7880700D46269A260EFE70C00002025
:101FF000A4290008C429000884290008F7B58B89A2
:1020000005000C001A075FD44A68002A04DC0A6C39
:10201000002A01DC0020FEBDE76A002FFAD0002272
:1020200080212E682A601A0049010A400B4234D0F0
:10203000606DA3895B0706D56368C01A636B002BCC
:1020400001D0236CC01A0200216A00232800E76A2D
:10205000B847A189431C06D12B681D2B31D82C4AC7
:10206000DA40D3072DD50023636023692360CB04B6
:1020700005D5431C02D12B68002B00D16065616B34
:102080002E600029C6D023004433994202D0280094
:1020900000F0F2F900206063BDE701232800216A07
:1020A000B847431CC5D12B68002BC2D01D2B01D0D3
:1020B000162B01D12E60ADE74023A2891343A381E3
:1020C000A9E740230B43FAE70F69002FA2D00A6863
:1020D0000F60D21B019200229B0700D14A69A260C7
:1020E000019B002B00DC95E73A002800019B216A48
:1020F000A66AB047002806DC40230120A28940429E
:102100001343A38187E7019B3F181B1A0193E7E75D
:10211000010040200B6970B505000C00002B02D1B6
:102120000025280070BD002804D08369002B01D150
:1021300000F092F8144B9C421BD16C680C22A35EF9
:10214000002BEDD0626ED20704D49B0502D4A06DA3
:1021500000F023F928002100FFF750FF636E05000F
:10216000DB07DED4A3899B05DBD4A06D00F016F954
:10217000D7E7064B9C4201D1AC68DFE7044B9C4299
:10218000DCD1EC68DAE7C046A4290008C4290008BD
:1021900084290008002310B50400036043608360B5
:1021A000818143661900C281036143618361082212
:1021B0005C30FFF7BDFD054B24626362044BA362F4
:1021C000044BE362044B236310BDC046F5260008B0
:1021D0001D270008552700088127000810B502496F
:1021E00000F0BAF810BDC0461521000870B568258A
:1021F0004A1E55430E002900743100F0A9F9041E4F
:1022000008D000212A00016046600C30A0606832CE
:10221000FFF78EFD200070BD10B5024800F0BDF83C
:1022200010BDC0468501002010B5024800F0B6F888
:1022300010BDC0468501002010B5024800F0ADF881
:1022400010BDC0468601002010B5024800F0A6F877
:1022500010BDC0468601002013B50400FFF7ECFF57
:10226000A369002B02D0FFF7EFFF13BDA364E36463
:102270002365134B134A1B68A2620193A34201D149
:102280000123A361200000F01FF86060200000F02F
:102290001BF8A060200000F017F800220421E06085
:1022A0006068FFF777FF01220921A068FFF772FF3E
:1022B00002221221E068FFF76DFF0123A361D2E73C
:1022C00080290008DD210008F8B50700FFF7A4FF0A
:1022D0001F4B1E68B369002B02D13000FFF7BCFF13
:1022E0004836B4687368013B04D53368002B22D0AC
:1022F0003668F6E70C22A55E002D1AD12000154B9A
:102300005830E360656600F047F8FFF78DFF200066
:10231000082229002560A560656025616561A561C9
:102320005C30FFF705FD6563A563A564E5642000E7
:10233000F8BD6834D7E704213800FFF757FF041EC3
:102340003060D5D1FFF770FF0C233B60EFE7C0464C
:10235000802900080100FFFFF7B5040006000027F0
:10236000019148346368A5680093009B013B00938A
:1023700004D52468002CF5D13800FEBDAB89012BB3
:1023800008D90E22AB5E013304D029003000019B36
:10239000984707436835E8E7704770477047000083
:1023A00070B50E001D000E23C95E140096B0002902
:1023B00008DA0C22B35E00222A601B0611D48023A7
:1023C000DB000FE06A4600F007FA0028F1DBF0239B
:1023D00001991B021940054BC9184B42594129600C
:1023E000EDE740230020236016B070BD00E0FFFF42
:1023F000F7B502268B8905000C00334206D0230076
:1024000047332360236101236361F7BD6A4601AB53
:10241000FFF7C6FF00990700280000F099F8002890
:1024200008D10C22A35E9A05EFD4032293431E43E6
:10243000A681E4E70F4BAB628023A289206013439F
:10244000A381009B20616361019B002B0DD02800BC
:102450000E23E15E00F0D2F9002806D00322A38902
:1024600093431A0001231343A381A0890743A78143
:10247000CBE7C046DD21000870B50500002910D06B
:102480000C1F2368002B00DAE418280000F0DCF9A8
:102490001D4A1368002B05D163601460280000F00A
:1024A000DBF970BDA34208D9216860188342F3D1DB
:1024B00018685B6841182160EEE71A005B68002B22
:1024C00001D0A342F9D911685018A0420BD120685D
:1024D0000918501811608342E0D118685B684118F0
:1024E00011605360DAE7A04202D90C232B60D5E7D4
:1024F00021686018834203D118685B684118216025
:1025000063605460CAE7C0468801002070B50F4E72
:102510000D0031680400002902D100F0D9F83060C4
:102520002900200000F0D4F8431C0AD00323C51C66
:102530009D43A84207D0291A200000F0C9F8431C87
:1025400001D101256D42280070BDC0468C010020DC
:10255000F7B50322CB1C9343083306001F000C2B56
:1025600032D20C27B94231D8300000F06DF9324D2B
:102570002B681C00002C2ED139003000FFF7C6FF5D
:102580000400431C1ED12C682500002D4AD123686D
:102590002900E3183000019300F09AF8019B834270
:1025A00043D123680337FF1A03239F4308370C2FB7
:1025B00000D20C2739003000FFF7A8FF431C34D0AD
:1025C0002368DF19276013E0002BCBDA0C230025EA
:1025D00033602800FEBD2268D11B20D40B2917D9F7
:1025E000E2192760A34211D12A6063681160536029
:1025F0003000250000F030F907220B35231D9543EC
:10260000EA1A9D42E5D05B1BA350E2E75A60ECE773
:102610006268A34201D12A60EAE75A60E8E7230032
:102620006468A7E72C006D68AFE70C2330003360C7
:1026300000F012F9CDE7C0468801002070B5060011
:102640000D001400002804D08369002B01D1FFF78E
:1026500003FE1C4B9C4224D17468636EDB0705D4D7
:10266000A3899B0502D4A06DFFF797FEA368013BE9
:10267000A360002B05DAA26993421CDBEBB20A2BA4
:1026800019D023685A1C22601D70EDB2636EDB07FF
:1026900005D4A3899B0502D4A06DFFF77FFE280017
:1026A00070BD094B9C4201D1B468D6E7074B9C42F0
:1026B000D3D1F468D1E7290022003000FFF7D0FB26
:1026C0000500E3E7A4290008C429000884290008BC
:1026D000002370B5064D040008002B6000F000F9DF
:1026E000431C03D12B68002B00D0236070BDC04673
:1026F0009001002070B50C000E25495F00F0B4F881
:10270000002803DB636D1B18636570BDA389024A53
:102710001340A381F9E7C046FFEFFFFFF8B51F00A4
:102720008B8905000C001600DB0505D50E23C95E5C
:102730000022022300F074F8A389054A2800134000
:10274000A38132000E23E15E3B0000F01FF8F8BDCC
:10275000FFEFFFFF70B50C000E25495F00F060F839
:10276000A389421C03D1054A1340A38170BD802276
:1027700052011343A3816065F8E7C046FFEFFFFFF6
:1027800010B50E23C95E00F015F810BD70B5040039
:10279000080011001A000023054D2B60FDF78EFD87
:1027A000431C03D12B68002B00D0236070BDC046B2
:1027B00090010020002370B5064D040008002B6036
:1027C00000F066F8431C03D12B68002B00D0236077
:1027D00070BDC04690010020002370B5064D040076
:1027E000080011002B6000F05BF8431C03D12B683C
:1027F000002B00D0236070BD90010020002370B535
:10280000064D040008002B6000F052F8431C03D171
:102810002B68002B00D0236070BDC04690010020C3
:1028200070B50400080011001A000023054D2B604C
:1028300000F046F8431C03D12B68002B00D0236026
:1028400070BDC0469001002010B50248FFF7A5FDFD
:1028500010BDC0468401002010B50248FFF79EFD60
:1028600010BDC0468401002070B5040008001100AE
:102870001A000023054D2B6000F02AF8431C03D1F9
:102880002B68002B00D0236070BDC0469001002053
:1028900058220120014B40421A60704790010020ED
:1028A00058220120014B40421A60704790010020DD
:1028B0005822024B00201A607047C0469001002049
:1028C00058220120014B40421A60704790010020BD
:1028D00058220120014B40421A60704790010020AD
:1028E000044A03001068002802D0C3181360704720
:1028F0000148FAE79401002098010020F8B5C0468D
:10290000F8BC08BC9E467047F8B5C046F8BC08BC89
:042910009E46704728
:1029140068656C6C6F0A000000000000626C696EF0
:102924006B310000626C696E6B320000626C696E20
:102934006B330000203E3E204F4B00000203040591
:10294400060708090A0B0C0D0E0F101000000000FA
:102954000102030405060708090A0B0C0D0E0F10EB
:102964000000000000000000000000000102030459
:1029740006070809000000000102030410000020FB
:102984000000000000000000000000000000000043
:102994000000000000000000000000000000000033
:1029A4000000000000000000000000000000000023
:1029B4000000000000000000000000000000000013
:1029C4000000000000000000000000000000000003
:1029D40000000000000000000000000000000000F3
:0429E400E9000008FE
:0429E800C100000822
:1029EC00010000000400000000127A00100000201A
:1029FC0000000000A4290008C4290008842900084C
:102A0C0000000000000000000000000000000000BA
:102A1C0000000000000000000000000000000000AA
:102A2C00000000000000000000000000000000009A
:102A3C00000000000000000000000000000000008A
:102A4C00000000000000000000000000000000007A
:0400000508001C953E
:00000001FF
